{
  "contractName": "Lachesis",
  "abi": [
    {
      "inputs": [
        {
          "internalType": "address",
          "name": "uniswapFactory",
          "type": "address"
        },
        {
          "internalType": "address",
          "name": "sushiSwapFactory",
          "type": "address"
        }
      ],
      "stateMutability": "nonpayable",
      "type": "constructor"
    },
    {
      "anonymous": false,
      "inputs": [
        {
          "indexed": true,
          "internalType": "address",
          "name": "previousOwner",
          "type": "address"
        },
        {
          "indexed": true,
          "internalType": "address",
          "name": "newOwner",
          "type": "address"
        }
      ],
      "name": "OwnershipTransferred",
      "type": "event"
    },
    {
      "inputs": [],
      "name": "behodler",
      "outputs": [
        {
          "internalType": "address",
          "name": "",
          "type": "address"
        }
      ],
      "stateMutability": "view",
      "type": "function",
      "constant": true
    },
    {
      "inputs": [],
      "name": "owner",
      "outputs": [
        {
          "internalType": "address",
          "name": "",
          "type": "address"
        }
      ],
      "stateMutability": "view",
      "type": "function",
      "constant": true
    },
    {
      "inputs": [],
      "name": "renounceOwnership",
      "outputs": [],
      "stateMutability": "nonpayable",
      "type": "function"
    },
    {
      "inputs": [
        {
          "internalType": "address",
          "name": "newOwner",
          "type": "address"
        }
      ],
      "name": "transferOwnership",
      "outputs": [],
      "stateMutability": "nonpayable",
      "type": "function"
    },
    {
      "inputs": [
        {
          "internalType": "address",
          "name": "token",
          "type": "address"
        }
      ],
      "name": "cut",
      "outputs": [
        {
          "internalType": "bool",
          "name": "",
          "type": "bool"
        },
        {
          "internalType": "bool",
          "name": "",
          "type": "bool"
        }
      ],
      "stateMutability": "view",
      "type": "function",
      "constant": true
    },
    {
      "inputs": [
        {
          "internalType": "address",
          "name": "token",
          "type": "address"
        },
        {
          "internalType": "bool",
          "name": "valid",
          "type": "bool"
        },
        {
          "internalType": "bool",
          "name": "burnable",
          "type": "bool"
        }
      ],
      "name": "measure",
      "outputs": [],
      "stateMutability": "nonpayable",
      "type": "function"
    },
    {
      "inputs": [
        {
          "internalType": "address",
          "name": "token1",
          "type": "address"
        },
        {
          "internalType": "address",
          "name": "token2",
          "type": "address"
        }
      ],
      "name": "measureLP",
      "outputs": [],
      "stateMutability": "nonpayable",
      "type": "function"
    },
    {
      "inputs": [
        {
          "internalType": "address",
          "name": "b",
          "type": "address"
        }
      ],
      "name": "setBehodler",
      "outputs": [],
      "stateMutability": "nonpayable",
      "type": "function"
    },
    {
      "inputs": [
        {
          "internalType": "address",
          "name": "token",
          "type": "address"
        }
      ],
      "name": "updateBehodler",
      "outputs": [],
      "stateMutability": "nonpayable",
      "type": "function"
    }
  ],
  "bytecode": "0x608060405234801561001057600080fd5b5060405161114a38038061114a8339818101604052604081101561003357600080fd5b810190808051906020019092919080519060200190929190505050336000806101000a81548173ffffffffffffffffffffffffffffffffffffffff021916908373ffffffffffffffffffffffffffffffffffffffff1602179055503373ffffffffffffffffffffffffffffffffffffffff16600073ffffffffffffffffffffffffffffffffffffffff167f8be0079c531659141344cd1fd0a4f28419497f9722a3daafe3b4186f6b6457e060405160405180910390a381600360000160006101000a81548173ffffffffffffffffffffffffffffffffffffffff021916908373ffffffffffffffffffffffffffffffffffffffff16021790555080600360010160006101000a81548173ffffffffffffffffffffffffffffffffffffffff021916908373ffffffffffffffffffffffffffffffffffffffff1602179055505050610fc8806101826000396000f3fe608060405234801561001057600080fd5b50600436106100935760003560e01c80637a29e022116100665780637a29e022146101a65780638da5cb5b146101ea578063e2ea87db1461021e578063e5b12cc014610281578063f2fde38b146102b557610093565b8063140947f114610098578063662e6918146100dc57806366ce93ca14610140578063715018a61461019c575b600080fd5b6100da600480360360208110156100ae57600080fd5b81019080803573ffffffffffffffffffffffffffffffffffffffff1690602001909291905050506102f9565b005b61013e600480360360408110156100f257600080fd5b81019080803573ffffffffffffffffffffffffffffffffffffffff169060200190929190803573ffffffffffffffffffffffffffffffffffffffff1690602001909291905050506103fe565b005b61019a6004803603606081101561015657600080fd5b81019080803573ffffffffffffffffffffffffffffffffffffffff1690602001909291908035151590602001909291908035151590602001909291905050506107ce565b005b6101a461089f565b005b6101e8600480360360208110156101bc57600080fd5b81019080803573ffffffffffffffffffffffffffffffffffffffff169060200190929190505050610a1e565b005b6101f2610bab565b604051808273ffffffffffffffffffffffffffffffffffffffff16815260200191505060405180910390f35b6102606004803603602081101561023457600080fd5b81019080803573ffffffffffffffffffffffffffffffffffffffff169060200190929190505050610bd4565b60405180831515815260200182151581526020019250505060405180910390f35b610289610c6f565b604051808273ffffffffffffffffffffffffffffffffffffffff16815260200191505060405180910390f35b6102f7600480360360208110156102cb57600080fd5b81019080803573ffffffffffffffffffffffffffffffffffffffff169060200190929190505050610c95565b005b3373ffffffffffffffffffffffffffffffffffffffff1660008054906101000a900473ffffffffffffffffffffffffffffffffffffffff1673ffffffffffffffffffffffffffffffffffffffff16146103ba576040517f08c379a00000000000000000000000000000000000000000000000000000000081526004018080602001828103825260208152602001807f4f776e61626c653a2063616c6c6572206973206e6f7420746865206f776e657281525060200191505060405180910390fd5b80600160006101000a81548173ffffffffffffffffffffffffffffffffffffffff021916908373ffffffffffffffffffffffffffffffffffffffff16021790555050565b600260008373ffffffffffffffffffffffffffffffffffffffff1673ffffffffffffffffffffffffffffffffffffffff16815260200190815260200160002060000160009054906101000a900460ff1680156104a65750600260008273ffffffffffffffffffffffffffffffffffffffff1673ffffffffffffffffffffffffffffffffffffffff16815260200190815260200160002060000160009054906101000a900460ff165b6104fb576040517f08c379a0000000000000000000000000000000000000000000000000000000008152600401808060200182810382526033815260200180610f606033913960400191505060405180910390fd5b6000600360000160009054906101000a900473ffffffffffffffffffffffffffffffffffffffff1673ffffffffffffffffffffffffffffffffffffffff1663e6a4390584846040518363ffffffff1660e01b8152600401808373ffffffffffffffffffffffffffffffffffffffff1681526020018273ffffffffffffffffffffffffffffffffffffffff1681526020019250505060206040518083038186803b1580156105a757600080fd5b505afa1580156105bb573d6000803e3d6000fd5b505050506040513d60208110156105d157600080fd5b810190808051906020019092919050505090506000600360010160009054906101000a900473ffffffffffffffffffffffffffffffffffffffff1673ffffffffffffffffffffffffffffffffffffffff1663e6a4390585856040518363ffffffff1660e01b8152600401808373ffffffffffffffffffffffffffffffffffffffff1681526020018273ffffffffffffffffffffffffffffffffffffffff1681526020019250505060206040518083038186803b15801561069057600080fd5b505afa1580156106a4573d6000803e3d6000fd5b505050506040513d60208110156106ba57600080fd5b81019080805190602001909291905050509050600073ffffffffffffffffffffffffffffffffffffffff168273ffffffffffffffffffffffffffffffffffffffff16146107135761070e8260016000610e99565b6107c8565b600073ffffffffffffffffffffffffffffffffffffffff168173ffffffffffffffffffffffffffffffffffffffff1614610759576107548160016000610e99565b6107c7565b6040517f08c379a000000000000000000000000000000000000000000000000000000000815260040180806020018281038252601d8152602001807f4c414348455349533a204c5020746f6b656e206e6f7420666f756e642e00000081525060200191505060405180910390fd5b5b50505050565b3373ffffffffffffffffffffffffffffffffffffffff1660008054906101000a900473ffffffffffffffffffffffffffffffffffffffff1673ffffffffffffffffffffffffffffffffffffffff161461088f576040517f08c379a00000000000000000000000000000000000000000000000000000000081526004018080602001828103825260208152602001807f4f776e61626c653a2063616c6c6572206973206e6f7420746865206f776e657281525060200191505060405180910390fd5b61089a838383610e99565b505050565b3373ffffffffffffffffffffffffffffffffffffffff1660008054906101000a900473ffffffffffffffffffffffffffffffffffffffff1673ffffffffffffffffffffffffffffffffffffffff1614610960576040517f08c379a00000000000000000000000000000000000000000000000000000000081526004018080602001828103825260208152602001807f4f776e61626c653a2063616c6c6572206973206e6f7420746865206f776e657281525060200191505060405180910390fd5b600073ffffffffffffffffffffffffffffffffffffffff1660008054906101000a900473ffffffffffffffffffffffffffffffffffffffff1673ffffffffffffffffffffffffffffffffffffffff167f8be0079c531659141344cd1fd0a4f28419497f9722a3daafe3b4186f6b6457e060405160405180910390a360008060006101000a81548173ffffffffffffffffffffffffffffffffffffffff021916908373ffffffffffffffffffffffffffffffffffffffff160217905550565b3373ffffffffffffffffffffffffffffffffffffffff1660008054906101000a900473ffffffffffffffffffffffffffffffffffffffff1673ffffffffffffffffffffffffffffffffffffffff1614610adf576040517f08c379a00000000000000000000000000000000000000000000000000000000081526004018080602001828103825260208152602001807f4f776e61626c653a2063616c6c6572206973206e6f7420746865206f776e657281525060200191505060405180910390fd5b600080610aeb83610bd4565b91509150600160009054906101000a900473ffffffffffffffffffffffffffffffffffffffff1673ffffffffffffffffffffffffffffffffffffffff1663e2fc9d008484846040518463ffffffff1660e01b8152600401808473ffffffffffffffffffffffffffffffffffffffff168152602001831515815260200182151581526020019350505050600060405180830381600087803b158015610b8e57600080fd5b505af1158015610ba2573d6000803e3d6000fd5b50505050505050565b60008060009054906101000a900473ffffffffffffffffffffffffffffffffffffffff16905090565b6000806000600260008573ffffffffffffffffffffffffffffffffffffffff1673ffffffffffffffffffffffffffffffffffffffff1681526020019081526020016000206040518060400160405290816000820160009054906101000a900460ff161515151581526020016000820160019054906101000a900460ff1615151515815250509050806000015181602001519250925050915091565b600160009054906101000a900473ffffffffffffffffffffffffffffffffffffffff1681565b3373ffffffffffffffffffffffffffffffffffffffff1660008054906101000a900473ffffffffffffffffffffffffffffffffffffffff1673ffffffffffffffffffffffffffffffffffffffff1614610d56576040517f08c379a00000000000000000000000000000000000000000000000000000000081526004018080602001828103825260208152602001807f4f776e61626c653a2063616c6c6572206973206e6f7420746865206f776e657281525060200191505060405180910390fd5b600073ffffffffffffffffffffffffffffffffffffffff168173ffffffffffffffffffffffffffffffffffffffff161415610ddc576040517f08c379a0000000000000000000000000000000000000000000000000000000008152600401808060200182810382526026815260200180610f3a6026913960400191505060405180910390fd5b8073ffffffffffffffffffffffffffffffffffffffff1660008054906101000a900473ffffffffffffffffffffffffffffffffffffffff1673ffffffffffffffffffffffffffffffffffffffff167f8be0079c531659141344cd1fd0a4f28419497f9722a3daafe3b4186f6b6457e060405160405180910390a3806000806101000a81548173ffffffffffffffffffffffffffffffffffffffff021916908373ffffffffffffffffffffffffffffffffffffffff16021790555050565b60405180604001604052808315158152602001821515815250600260008573ffffffffffffffffffffffffffffffffffffffff1673ffffffffffffffffffffffffffffffffffffffff16815260200190815260200160002060008201518160000160006101000a81548160ff02191690831515021790555060208201518160000160016101000a81548160ff02191690831515021790555090505050505056fe4f776e61626c653a206e6577206f776e657220697320746865207a65726f20616464726573734c414348455349533a204f6e6c792076616c696420746f6b656e732063616e2068617665207468656972204c50206164646564a26469706673582212201a1e433f10132e6b968de8c6792881ab52e1430dd610590a7c70762f5e3e6b8364736f6c63430007060033",
  "immutableReferences": {},
  "source": "// SPDX-License-Identifier: MIT\npragma solidity ^0.7.6;\nimport \"./openzeppelin/Ownable.sol\";\nimport \"./facades/LachesisLike.sol\";\nimport \"./facades/BehodlerLike.sol\";\n\nabstract contract FactoryFacade {\n    mapping(address => mapping(address => address)) public getPair;\n}\n\ncontract Lachesis is Ownable, LachesisLike {\n    struct tokenConfig {\n        bool valid;\n        bool burnable;\n    }\n    address public behodler;\n    mapping(address => tokenConfig) private config;\n\n    struct Factory {\n        FactoryFacade uni;\n        FactoryFacade sushi;\n    }\n    Factory swapFactory;\n\n    constructor(address uniswapFactory, address sushiSwapFactory) {\n        swapFactory.uni = FactoryFacade(uniswapFactory);\n        swapFactory.sushi = FactoryFacade(sushiSwapFactory);\n    }\n\n    function cut(address token) public view override returns (bool, bool) {\n        tokenConfig memory parameters = config[token];\n        return (parameters.valid, parameters.burnable);\n    }\n\n    function measure(\n        address token,\n        bool valid,\n        bool burnable\n    ) public override onlyOwner {\n        _measure(token, valid, burnable);\n    }\n\n    function _measure(\n        address token,\n        bool valid,\n        bool burnable\n    ) internal {\n        config[token] = tokenConfig({valid: valid, burnable: burnable});\n    }\n\n    function measureLP(address token1, address token2) public {\n        require(\n            config[token1].valid && config[token2].valid,\n            \"LACHESIS: Only valid tokens can have their LP added\"\n        );\n        address uniswapLP = swapFactory.uni.getPair(token1, token2);\n        address sushiswapLP = swapFactory.sushi.getPair(token1, token2);\n        if (uniswapLP != address(0)) _measure(uniswapLP, true, false);\n        else if (sushiswapLP != address(0)) _measure(sushiswapLP, true, false);\n        else revert(\"LACHESIS: LP token not found.\");\n    }\n\n    function setBehodler(address b) public onlyOwner {\n        behodler = b;\n    }\n\n    function updateBehodler(address token) public onlyOwner {\n        (bool valid, bool burnable) = cut(token);\n        BehodlerLike(behodler).setValidToken(token, valid, burnable);\n    }\n}\n",
  "sourcePath": "/home/justin/weidai ecosystem/behodler2/contracts/Lachesis.sol",
  "compiler": {
    "name": "solc",
    "version": "0.7.6+commit.7338295f.Emscripten.clang"
  },
  "schemaVersion": "3.3.3",
  "updatedAt": "2021-04-08T23:44:24.153Z",
  "networkType": "ethereum",
  "devdoc": {
    "kind": "dev",
    "methods": {
      "renounceOwnership()": {
        "details": "Leaves the contract without owner. It will not be possible to call `onlyOwner` functions anymore. Can only be called by the current owner. NOTE: Renouncing ownership will leave the contract without an owner, thereby removing any functionality that is only available to the owner."
      },
      "transferOwnership(address)": {
        "details": "Transfers ownership of the contract to a new account (`newOwner`). Can only be called by the current owner."
      }
    },
    "version": 1
  },
  "userdoc": {
    "kind": "user",
    "methods": {},
    "version": 1
  }
}